:100000000C945D000C9485000C9485000C94850084
:100010000C9485000C9485000C9485000C9485004C
:100020000C9485000C9485000C9485000C9485003C
:100030000C9485000C9485000C9485000C9485002C
:100040000C9469020C9485000C94D9020C94B302B0
:100050000C9485000C9485000C9485000C9485000C
:100060000C9485000C9485000000000024002700FB
:100070002A0000000000250028002B0004040404CE
:100080000404040402020202020203030303030342
:10009000010204081020408001020408102001021F
:1000A00004081020000000080002010000030407FB
:1000B0000000000000000000860411241FBECFEFE6
:1000C000D8E0DEBFCDBF21E0ACE1B1E001C01D92C0
:1000D000A63CB207E1F711E0A0E0B1E0E2EFFDE0FD
:1000E00002C005900D92AC31B107D9F710E0CDE513
:1000F000D0E004C02197FE010E94F604CC35D10760
:10010000C9F70E940B030C94F7060C940000E1EB76
:10011000F0E02491EDE9F0E09491E9E8F0E0E49179
:10012000EE23C9F0222339F0233001F1A8F4213065
:1001300019F1223029F1F0E0EE0FFF1FEE58FF4FCA
:10014000A591B4912FB7F894EC91811126C09095A8
:100150009E239C932FBF08952730A9F02830C9F023
:10016000243049F7209180002F7D03C0209180002A
:100170002F7720938000DFCF24B52F7724BDDBCFEE
:1001800024B52F7DFBCF2091B0002F772093B000B6
:10019000D2CF2091B0002F7DF9CF9E2BDACF3FB781
:1001A000F89480911D0190911E01A0911F01B091C2
:1001B000200126B5A89B05C02F3F19F00196A11D6F
:1001C000B11D3FBFBA2FA92F982F8827BC01CD01A1
:1001D000620F711D811D911D42E0660F771F881F00
:1001E000991F4A95D1F70895AF92BF92CF92DF92AF
:1001F000EF92FF920F931F93CF93DF936C017B01DC
:100200008B01040F151FEB015E01AE18BF08C0176C
:10021000D10759F06991D601ED91FC910190F081DF
:10022000E02DC6010995892B79F7C501DF91CF91A2
:100230001F910F91FF90EF90DF90CF90BF90AF9004
:100240000895FC01538D448D252F30E0842F90E0DC
:10025000821B930B541710F0CF96089501970895C1
:10026000FC01918D828D981761F0A28DAE0FBF2F8A
:10027000B11D5D968C91928D9F5F9F73928F90E0E0
:1002800008958FEF9FEF08952FB7F8948091210183
:1002900090912201A0912301B09124012FBF80935E
:1002A0002D0190932E01A0932F01B093300185E290
:1002B00091E00E94300197FF26C02FB7F8948091FB
:1002C000210190912201A0912301B09124012FBF1F
:1002D00040912D0150912E0160912F0170913001BC
:1002E000841B950BA60BB70B4091290150912A0155
:1002F00060912B0170912C0184179507A607B70711
:10030000B0F28FEF9FEF0895FC01918D828D9817C9
:1003100031F0828DE80FF11D858D90E008958FEF0B
:100320009FEF0895FC01918D228D892F90E0805CD4
:100330009F4F821B91098F739927089585E291E061
:100340000E94920121E0892B09F420E0822F089578
:1003500080E090E0892B29F00E949E0181110C948D
:1003600000000895FC01A48DA80FB92FB11DA35A58
:10037000BF4F2C91848D90E001968F739927848FC5
:10038000A689B7892C93A089B1898C9183708064E8
:100390008C93938D848D981306C00288F389E02D89
:1003A00080818F7D80830895EF92FF920F931F933A
:1003B000CF93DF93EC0181E0888F9B8D8C8D981318
:1003C0001AC0E889F989808185FF15C09FB7F89424
:1003D000EE89FF896083E889F98980818370806470
:1003E00080839FBF81E090E0DF91CF911F910F91BB
:1003F000FF90EF900895F62E0B8D10E00F5F1F4FCA
:100400000F731127E02E8C8D8E110CC00FB607FCD8
:10041000FACFE889F989808185FFF5CFCE010E9466
:10042000B201F1CFEB8DEC0FFD2FF11DE35AFF4F21
:10043000F0829FB7F8940B8FEA89FB8980818062F4
:10044000CFCFCF93DF93EC01888D8823B9F0AA89B1
:10045000BB89E889F9898C9185FD03C0808186FD7F
:100460000DC00FB607FCF7CF8C9185FFF2CF8081CE
:1004700085FFEDCFCE010E94B201E9CFDF91CF9190
:1004800008950F931F93CF93DF93EC018881998197
:10049000009759F02A813B812617370730F081E019
:1004A000DF91CF911F910F9108958B016F5F7F4F67
:1004B0000E942106009759F0998388831B830A8341
:1004C0002C813D81232B59F7FC011082E8CF80E07D
:1004D000E7CF1F920F920FB60F9211242F933F93E5
:1004E0008F939F93AF93BF938091210190912201AD
:1004F000A0912301B091240130911C0123E0230F2E
:100500002D3758F50196A11DB11D20931C01809334
:10051000210190932201A0932301B09324018091A3
:100520001D0190911E01A0911F01B0912001019623
:10053000A11DB11D80931D0190931E01A0931F0169
:10054000B0932001BF91AF919F918F913F912F91D7
:100550000F900FBE0F901F90189526E8230F02965C
:10056000A11DB11DD2CF1F920F920FB60F92112471
:100570002F933F934F935F936F937F938F939F93AB
:10058000AF93BF93EF93FF9385E291E00E94B20196
:10059000FF91EF91BF91AF919F918F917F916F915B
:1005A0005F914F913F912F910F900FBE0F901F9031
:1005B00018951F920F920FB60F9211242F938F93BD
:1005C0009F93EF93FF93E0913501F0913601808185
:1005D000E0913B01F0913C0182FD1BC09081809134
:1005E0003E018F5F8F7320913F01821741F0E091B0
:1005F0003E01F0E0EB5DFE4F958F80933E01FF9151
:10060000EF919F918F912F910F900FBE0F901F90A0
:1006100018958081F4CFCF93DF93CDB7DEB72897BD
:100620000FB6F894DEBF0FBECDBF789484B582605C
:1006300084BD84B5816084BD85B5826085BD85B586
:10064000816085BD80916E00816080936E00109204
:10065000810080918100826080938100809181007F
:100660008160809381008091800081608093800010
:100670008091B10084608093B1008091B00081606E
:100680008093B00080917A00846080937A0080919A
:100690007A00826080937A0080917A0081608093F2
:1006A0007A0080917A00806880937A001092C1006D
:1006B000E0913501F091360182E08083E0913101D3
:1006C000F09132011082E0913301F09134018FEC0E
:1006D000808310923D01E0913901F0913A0186E06A
:1006E0008083E0913701F0913801808180618083BF
:1006F000E0913701F0913801808188608083E0913A
:100700003701F0913801808180688083E091370162
:10071000F091380180818F7D8083EDE9F0E02491B4
:10072000E9E8F0E08491882399F090E0880F991F20
:10073000FC01E859FF4FA591B491FC01EE58FF4F21
:10074000859194918FB7F894EC91E22BEC938FBF45
:1007500080E00E94870090E0A92E90E0B92E85E20B
:1007600091E00E949201892B09F48DC01A821982AE
:100770001C821B821E821D8270E060E0CE01019609
:100780000E94410229813A8181112EC02115310533
:1007900019F0C9010E9498051A8219821E821D82D1
:1007A0001C821B820E9444010D811E8197FD24C082
:1007B0008A30910509F18F8318860F5F1F4FB801AA
:1007C000CE0101960E944102882361F329813A817A
:1007D0008D819E81BE01695F7F4F820F931F0E94B2
:1007E000F0061E830D83DECF1E821D826BE171E059
:1007F000C9010E94F006D6CFC980DA80C114D104A5
:1008000029F076010115110509F04AC08D819E81FC
:10081000892B99F168E171E089819A810E94E7064C
:10082000892B59F581E00E9487000E94CF002B019F
:100830003C0188EBC82E8BE0D82EE12CF12C0E94D5
:10084000CF006419750986099709683E73408105D0
:100850009105A8F3F1E0CF1AD108E108F10828EEDC
:10086000420E23E0521E611C711CC114D104E1042C
:10087000F10429F780E00E94870089819A8100971E
:1008800011F00E949805A114B10409F468CF0E94E8
:100890009E01882309F463CF0E94000060CF73019A
:1008A00037012FEF621A720AF7018081082E000CBF
:1008B000990B0E94B304892B91F7015011090C0D7B
:1008C0001D1DF8018081082E000C990B0E94B304B5
:1008D000892B31F00E151F0518F001501109F1CFC9
:1008E000A8014F5F5F4F4E195F095E834D83CE14A1
:1008F000DF0420F4B701C6010E94DE06E981FA8117
:100900008D819E81E80FF91F108280CFE5E2F1E032
:100910001382128288EE93E0A0E0B0E08483958396
:10092000A683B7838AE091E09183808385EC90E091
:100930009587848784EC90E09787868780EC90E0A9
:10094000918B808B81EC90E0938B828B82EC90E09A
:10095000958B848B86EC90E0978B868B118E128E14
:10096000138E148E089591110C94BC04803219F0EA
:1009700089508550C8F708959927882708952F92A0
:100980003F924F925F926F927F928F929F92AF921F
:10099000BF92CF92DF92EF92FF920F931F93CF936C
:1009A000DF93CDB7DEB7CA1BDB0B0FB6F894DEBF03
:1009B0000FBECDBF09942A88398848885F846E8429
:1009C0007D848C849B84AA84B984C884DF80EE8073
:1009D000FD800C811B81AA81B981CE0FD11D0FB67C
:1009E000F894DEBF0FBECDBFED010895EE0FFF1FDF
:1009F0000590F491E02D09940F931F93CF93DF930B
:100A00008230910510F482E090E0E091C401F09111
:100A1000C50130E020E0B0E0A0E0309799F4211566
:100A2000310509F44AC0281B390B24303105D8F5AB
:100A30008A819B816115710589F1FB019383828312
:100A4000FE0111C04081518102811381481759076D
:100A5000E0F04817590799F4109761F012960C933B
:100A6000129713961C933296CF01DF91CF911F916D
:100A70000F9108950093C4011093C501F4CF21157F
:100A8000310551F04217530738F0A901DB019A01F3
:100A9000BD01DF01F801C1CFEF01F9CF9093C5018E
:100AA0008093C401CDCFFE01E20FF31F8193919398
:100AB0002250310939832883D7CF2091C201309148
:100AC000C301232B41F420910201309103013093A3
:100AD000C3012093C2012091000130910101211531
:100AE000310541F42DB73EB7409104015091050105
:100AF000241B350BE091C201F091C301E217F3070B
:100B0000A0F42E1B3F0B2817390778F0AC014E5F7D
:100B10005F4F2417350748F04E0F5F1F5093C301F6
:100B20004093C201819391939FCFF0E0E0E09CCF8E
:100B3000CF93DF930097E9F0FC0132971382128282
:100B4000A091C401B091C501ED0130E020E0109703
:100B5000A1F420813181820F931F2091C201309135
:100B6000C3012817390709F061C0F093C301E0936E
:100B7000C201DF91CF910895EA01CE17DF07E8F5B2
:100B80004A815B819E0141155105B1F7E901FB8363
:100B9000EA8349915991C40FD51FEC17FD0761F401
:100BA000808191810296840F951FE9019983888342
:100BB000828193819B838A83F0E0E0E012968D919D
:100BC0009C9113970097B9F52D913C911197CD0108
:100BD0000296820F931F2091C2013091C301281702
:100BE000390739F6309751F51092C5011092C401BA
:100BF000B093C301A093C201BCCFD383C283408111
:100C00005181840F951FC817D90761F44E5F5F4F5C
:100C100088819981480F591F518340838A819B8124
:100C2000938382832115310509F0B0CFF093C5017C
:100C3000E093C4019ECFFD01DC01C0CF138212827C
:100C4000D7CFB0E0A0E0E7E2F6E00C94C1048C015D
:100C5000009751F4CB010E94FC048C01C801CDB770
:100C6000DEB7E0E10C94DD04FC01E60FF71F9C0108
:100C700022503109E217F30708F49DC0D901CD9144
:100C8000DC911197C617D70798F0C530D10530F31E
:100C9000CE0104978617970708F3C61BD70B229738
:100CA000C193D1936D937C93CF010E949805D6CFC9
:100CB0005B01AC1ABD0A4C018C0E9D1EA091C401B3
:100CC000B091C501512C412CF12CE12C109731F53C
:100CD0008091C2019091C3018815990509F05CC00B
:100CE0004616570608F058C0809100019091010106
:100CF000009741F48DB79EB74091040150910501D2
:100D0000841B950BE817F90708F055C0F093C30151
:100D1000E093C201F90171836083A0CF8D919C9112
:100D2000119712966C90129713967C901397A815B2
:100D3000B90559F56C0142E0C40ED11CCA14DB049C
:100D400020F1AC014A195B09DA011296159780F07F
:100D50006282738251834083D9016D937C93E11445
:100D6000F10471F0D7011396FC93EE93129776CFAE
:100D700022968C0F9D1FF90191838083F301EFCFA1
:100D8000F093C501E093C40169CF4816590608F4F1
:100D90002C017D01D3019ACFCB010E94FC047C0180
:100DA000009749F0AE01B8010E94DE06C8010E941A
:100DB0009805870153CF10E000E050CFFB01DC0124
:100DC00002C001900D9241505040D8F70895FB01A8
:100DD000DC018D91019080190110D9F3990B0895D0
:100DE000FB01DC0101900D920020E1F70895F894D9
:020DF000FFCF33
:100DF2000000C601800000000000D401F4002101BF
:0C0E020021029201300184015346480097
:00000001FF
